{
  "address": "0xd0DE7E8c18878a42d773aE92C2bEb1fde5058974",
  "abi": [
    {
      "inputs": [],
      "stateMutability": "nonpayable",
      "type": "constructor"
    },
    {
      "inputs": [],
      "name": "AccessControlBadConfirmation",
      "type": "error"
    },
    {
      "inputs": [
        {
          "internalType": "address",
          "name": "account",
          "type": "address"
        },
        {
          "internalType": "bytes32",
          "name": "neededRole",
          "type": "bytes32"
        }
      ],
      "name": "AccessControlUnauthorizedAccount",
      "type": "error"
    },
    {
      "anonymous": false,
      "inputs": [
        {
          "indexed": true,
          "internalType": "bytes32",
          "name": "role",
          "type": "bytes32"
        },
        {
          "indexed": true,
          "internalType": "bytes32",
          "name": "previousAdminRole",
          "type": "bytes32"
        },
        {
          "indexed": true,
          "internalType": "bytes32",
          "name": "newAdminRole",
          "type": "bytes32"
        }
      ],
      "name": "RoleAdminChanged",
      "type": "event"
    },
    {
      "anonymous": false,
      "inputs": [
        {
          "indexed": true,
          "internalType": "bytes32",
          "name": "role",
          "type": "bytes32"
        },
        {
          "indexed": true,
          "internalType": "address",
          "name": "account",
          "type": "address"
        },
        {
          "indexed": true,
          "internalType": "address",
          "name": "sender",
          "type": "address"
        }
      ],
      "name": "RoleGranted",
      "type": "event"
    },
    {
      "anonymous": false,
      "inputs": [
        {
          "indexed": true,
          "internalType": "bytes32",
          "name": "role",
          "type": "bytes32"
        },
        {
          "indexed": true,
          "internalType": "address",
          "name": "account",
          "type": "address"
        },
        {
          "indexed": true,
          "internalType": "address",
          "name": "sender",
          "type": "address"
        }
      ],
      "name": "RoleRevoked",
      "type": "event"
    },
    {
      "inputs": [],
      "name": "DEFAULT_ADMIN_ROLE",
      "outputs": [
        {
          "internalType": "bytes32",
          "name": "",
          "type": "bytes32"
        }
      ],
      "stateMutability": "view",
      "type": "function"
    },
    {
      "inputs": [],
      "name": "SERVER_ROLE",
      "outputs": [
        {
          "internalType": "bytes32",
          "name": "",
          "type": "bytes32"
        }
      ],
      "stateMutability": "view",
      "type": "function"
    },
    {
      "inputs": [],
      "name": "TREASURE_ROLE",
      "outputs": [
        {
          "internalType": "bytes32",
          "name": "",
          "type": "bytes32"
        }
      ],
      "stateMutability": "view",
      "type": "function"
    },
    {
      "inputs": [],
      "name": "decWhitelist",
      "outputs": [],
      "stateMutability": "nonpayable",
      "type": "function"
    },
    {
      "inputs": [
        {
          "internalType": "bytes32",
          "name": "role",
          "type": "bytes32"
        }
      ],
      "name": "getRoleAdmin",
      "outputs": [
        {
          "internalType": "bytes32",
          "name": "",
          "type": "bytes32"
        }
      ],
      "stateMutability": "view",
      "type": "function"
    },
    {
      "inputs": [
        {
          "internalType": "bytes32",
          "name": "role",
          "type": "bytes32"
        },
        {
          "internalType": "address",
          "name": "account",
          "type": "address"
        }
      ],
      "name": "grantRole",
      "outputs": [],
      "stateMutability": "nonpayable",
      "type": "function"
    },
    {
      "inputs": [
        {
          "internalType": "bytes32",
          "name": "role",
          "type": "bytes32"
        },
        {
          "internalType": "address",
          "name": "account",
          "type": "address"
        }
      ],
      "name": "hasRole",
      "outputs": [
        {
          "internalType": "bool",
          "name": "",
          "type": "bool"
        }
      ],
      "stateMutability": "view",
      "type": "function"
    },
    {
      "inputs": [],
      "name": "price",
      "outputs": [
        {
          "internalType": "uint256",
          "name": "",
          "type": "uint256"
        }
      ],
      "stateMutability": "view",
      "type": "function"
    },
    {
      "inputs": [],
      "name": "priceOP",
      "outputs": [
        {
          "internalType": "uint256",
          "name": "",
          "type": "uint256"
        }
      ],
      "stateMutability": "view",
      "type": "function"
    },
    {
      "inputs": [],
      "name": "priceZK",
      "outputs": [
        {
          "internalType": "uint256",
          "name": "",
          "type": "uint256"
        }
      ],
      "stateMutability": "view",
      "type": "function"
    },
    {
      "inputs": [
        {
          "internalType": "bytes32",
          "name": "role",
          "type": "bytes32"
        },
        {
          "internalType": "address",
          "name": "callerConfirmation",
          "type": "address"
        }
      ],
      "name": "renounceRole",
      "outputs": [],
      "stateMutability": "nonpayable",
      "type": "function"
    },
    {
      "inputs": [
        {
          "internalType": "bytes32",
          "name": "role",
          "type": "bytes32"
        },
        {
          "internalType": "address",
          "name": "account",
          "type": "address"
        }
      ],
      "name": "revokeRole",
      "outputs": [],
      "stateMutability": "nonpayable",
      "type": "function"
    },
    {
      "inputs": [],
      "name": "server",
      "outputs": [
        {
          "internalType": "address",
          "name": "",
          "type": "address"
        }
      ],
      "stateMutability": "view",
      "type": "function"
    },
    {
      "inputs": [
        {
          "internalType": "address",
          "name": "_server",
          "type": "address"
        }
      ],
      "name": "setServer",
      "outputs": [],
      "stateMutability": "nonpayable",
      "type": "function"
    },
    {
      "inputs": [
        {
          "internalType": "bytes4",
          "name": "interfaceId",
          "type": "bytes4"
        }
      ],
      "name": "supportsInterface",
      "outputs": [
        {
          "internalType": "bool",
          "name": "",
          "type": "bool"
        }
      ],
      "stateMutability": "view",
      "type": "function"
    },
    {
      "inputs": [
        {
          "internalType": "address",
          "name": "",
          "type": "address"
        }
      ],
      "name": "whitelist",
      "outputs": [
        {
          "internalType": "uint8",
          "name": "",
          "type": "uint8"
        }
      ],
      "stateMutability": "view",
      "type": "function"
    },
    {
      "inputs": [],
      "name": "withdraw",
      "outputs": [],
      "stateMutability": "nonpayable",
      "type": "function"
    },
    {
      "stateMutability": "payable",
      "type": "receive"
    }
  ],
  "transactionHash": "0x0a910b2894708104866d5bd517287553fc01793002a6d68e2262e54e100ae8b2",
  "args": [],
  "numDeployments": 1,
  "solcInputHash": "846761806497c0574f98e6f0d3b0fa57",
  "bytecode": "0x608060405234801561001057600080fd5b50466101440361002a5766b1a2bc2ec50000600255610035565b655af3107a40006002555b61004060003361009c565b5061006b7fa8a7bc421f721cb936ea99efdad79237e6ee0b871a2a08cf648691f9584cdc773361009c565b506100967f067480c53f9603ecfd957b375116b3dc33a34aeb0454caeb7e1e40e1dbd9997a3361009c565b50610148565b6000828152602081815260408083206001600160a01b038516845290915281205460ff1661013e576000838152602081815260408083206001600160a01b03861684529091529020805460ff191660011790556100f63390565b6001600160a01b0316826001600160a01b0316847f2f8788117e7eff1d82e926ec794901d17c78024a50270940304540a733656f0d60405160405180910390a4506001610142565b5060005b92915050565b6108d3806101576000396000f3fe6080604052600436106101025760003560e01c80637f83409711610095578063a217fddf11610064578063a217fddf146103a6578063d547741f146103bb578063f19a0b54146103db578063fc6a76cd146103fb578063fd922a421461041657600080fd5b80637f834097146102fa57806391d148541461032e5780639b19251a1461034e578063a035b1fe1461039057600080fd5b80632f2ff15d116100d15780632f2ff15d1461028e57806336568abe146102b05780633ccfd60b146102d05780634fa58694146102e557600080fd5b806301ffc9a7146101cd5780630c0ed0a11461020257806318cf28341461022a578063248a9ca31461025e57600080fd5b366101c857600254341461014d5760405162461bcd60e51b815260206004820152600d60248201526c6e6f742074686520707269636560981b60448201526064015b60405180910390fd5b336108fc600a61015e47600761077b565b6101689190610792565b6040518115909202916000818181858888f19350505050158015610190573d6000803e3d6000fd5b50336000908152600160205260408120805460ff16916101af836107b4565b91906101000a81548160ff021916908360ff1602179055005b600080fd5b3480156101d957600080fd5b506101ed6101e83660046107d3565b61044e565b60405190151581526020015b60405180910390f35b34801561020e57600080fd5b5061021c655af3107a400081565b6040519081526020016101f9565b34801561023657600080fd5b5061021c7fa8a7bc421f721cb936ea99efdad79237e6ee0b871a2a08cf648691f9584cdc7781565b34801561026a57600080fd5b5061021c610279366004610804565b60009081526020819052604090206001015490565b34801561029a57600080fd5b506102ae6102a9366004610839565b610485565b005b3480156102bc57600080fd5b506102ae6102cb366004610839565b6104b0565b3480156102dc57600080fd5b506102ae6104e8565b3480156102f157600080fd5b506102ae610542565b34801561030657600080fd5b5061021c7f067480c53f9603ecfd957b375116b3dc33a34aeb0454caeb7e1e40e1dbd9997a81565b34801561033a57600080fd5b506101ed610349366004610839565b6105a6565b34801561035a57600080fd5b5061037e610369366004610865565b60016020526000908152604090205460ff1681565b60405160ff90911681526020016101f9565b34801561039c57600080fd5b5061021c60025481565b3480156103b257600080fd5b5061021c600081565b3480156103c757600080fd5b506102ae6103d6366004610839565b6105cf565b3480156103e757600080fd5b506102ae6103f6366004610865565b6105f4565b34801561040757600080fd5b5061021c66b1a2bc2ec5000081565b34801561042257600080fd5b50600354610436906001600160a01b031681565b6040516001600160a01b0390911681526020016101f9565b60006001600160e01b03198216637965db0b60e01b148061047f57506301ffc9a760e01b6001600160e01b03198316145b92915050565b6000828152602081905260409020600101546104a081610622565b6104aa838361062f565b50505050565b6001600160a01b03811633146104d95760405163334bd91960e11b815260040160405180910390fd5b6104e382826106c1565b505050565b7f067480c53f9603ecfd957b375116b3dc33a34aeb0454caeb7e1e40e1dbd9997a61051281610622565b60405133904780156108fc02916000818181858888f1935050505015801561053e573d6000803e3d6000fd5b5050565b7fa8a7bc421f721cb936ea99efdad79237e6ee0b871a2a08cf648691f9584cdc7761056c81610622565b336000908152600160205260408120805460ff169161058a83610880565b91906101000a81548160ff021916908360ff1602179055505050565b6000918252602082815260408084206001600160a01b0393909316845291905290205460ff1690565b6000828152602081905260409020600101546105ea81610622565b6104aa83836106c1565b60006105ff81610622565b50600380546001600160a01b0319166001600160a01b0392909216919091179055565b61062c813361072c565b50565b600061063b83836105a6565b6106b9576000838152602081815260408083206001600160a01b03861684529091529020805460ff191660011790556106713390565b6001600160a01b0316826001600160a01b0316847f2f8788117e7eff1d82e926ec794901d17c78024a50270940304540a733656f0d60405160405180910390a450600161047f565b50600061047f565b60006106cd83836105a6565b156106b9576000838152602081815260408083206001600160a01b0386168085529252808320805460ff1916905551339286917ff6391f5c32d9c69d2a47ea670b442974b53935d1edc7fd64eb21e047a839171b9190a450600161047f565b61073682826105a6565b61053e5760405163e2517d3f60e01b81526001600160a01b038216600482015260248101839052604401610144565b634e487b7160e01b600052601160045260246000fd5b808202811582820484141761047f5761047f610765565b6000826107af57634e487b7160e01b600052601260045260246000fd5b500490565b600060ff821660ff81036107ca576107ca610765565b60010192915050565b6000602082840312156107e557600080fd5b81356001600160e01b0319811681146107fd57600080fd5b9392505050565b60006020828403121561081657600080fd5b5035919050565b80356001600160a01b038116811461083457600080fd5b919050565b6000806040838503121561084c57600080fd5b8235915061085c6020840161081d565b90509250929050565b60006020828403121561087757600080fd5b6107fd8261081d565b600060ff82168061089357610893610765565b600019019291505056fea264697066735822122018bf9ce0bad30867d9c5ccfdecea7de295ab12c921405b6a53b5c42db528be4864736f6c63430008140033",
  "devdoc": {
    "errors": {
      "AccessControlBadConfirmation()": [
        {
          "details": "The caller of a function is not the expected one. NOTE: Don't confuse with {AccessControlUnauthorizedAccount}."
        }
      ],
      "AccessControlUnauthorizedAccount(address,bytes32)": [
        {
          "details": "The `account` is missing a role."
        }
      ]
    },
    "events": {
      "RoleAdminChanged(bytes32,bytes32,bytes32)": {
        "details": "Emitted when `newAdminRole` is set as ``role``'s admin role, replacing `previousAdminRole` `DEFAULT_ADMIN_ROLE` is the starting admin for all roles, despite {RoleAdminChanged} not being emitted signaling this."
      },
      "RoleGranted(bytes32,address,address)": {
        "details": "Emitted when `account` is granted `role`. `sender` is the account that originated the contract call, an admin role bearer except when using {AccessControl-_setupRole}."
      },
      "RoleRevoked(bytes32,address,address)": {
        "details": "Emitted when `account` is revoked `role`. `sender` is the account that originated the contract call:   - if using `revokeRole`, it is the admin role bearer   - if using `renounceRole`, it is the role bearer (i.e. `account`)"
      }
    },
    "kind": "dev",
    "methods": {
      "getRoleAdmin(bytes32)": {
        "details": "Returns the admin role that controls `role`. See {grantRole} and {revokeRole}. To change a role's admin, use {_setRoleAdmin}."
      },
      "grantRole(bytes32,address)": {
        "details": "Grants `role` to `account`. If `account` had not been already granted `role`, emits a {RoleGranted} event. Requirements: - the caller must have ``role``'s admin role. May emit a {RoleGranted} event."
      },
      "hasRole(bytes32,address)": {
        "details": "Returns `true` if `account` has been granted `role`."
      },
      "renounceRole(bytes32,address)": {
        "details": "Revokes `role` from the calling account. Roles are often managed via {grantRole} and {revokeRole}: this function's purpose is to provide a mechanism for accounts to lose their privileges if they are compromised (such as when a trusted device is misplaced). If the calling account had been revoked `role`, emits a {RoleRevoked} event. Requirements: - the caller must be `callerConfirmation`. May emit a {RoleRevoked} event."
      },
      "revokeRole(bytes32,address)": {
        "details": "Revokes `role` from `account`. If `account` had been granted `role`, emits a {RoleRevoked} event. Requirements: - the caller must have ``role``'s admin role. May emit a {RoleRevoked} event."
      },
      "supportsInterface(bytes4)": {
        "details": "See {IERC165-supportsInterface}."
      }
    },
    "version": 1
  },
  "userdoc": {
    "kind": "user",
    "methods": {},
    "version": 1
  },
  "storageLayout": {
    "storage": [
      {
        "astId": 26,
        "contract": "contracts/AIC.sol:AIC",
        "label": "_roles",
        "offset": 0,
        "slot": "0",
        "type": "t_mapping(t_bytes32,t_struct(RoleData)21_storage)"
      },
      {
        "astId": 454,
        "contract": "contracts/AIC.sol:AIC",
        "label": "whitelist",
        "offset": 0,
        "slot": "1",
        "type": "t_mapping(t_address,t_uint8)"
      },
      {
        "astId": 472,
        "contract": "contracts/AIC.sol:AIC",
        "label": "price",
        "offset": 0,
        "slot": "2",
        "type": "t_uint256"
      },
      {
        "astId": 474,
        "contract": "contracts/AIC.sol:AIC",
        "label": "server",
        "offset": 0,
        "slot": "3",
        "type": "t_address"
      }
    ],
    "types": {
      "t_address": {
        "encoding": "inplace",
        "label": "address",
        "numberOfBytes": "20"
      },
      "t_bool": {
        "encoding": "inplace",
        "label": "bool",
        "numberOfBytes": "1"
      },
      "t_bytes32": {
        "encoding": "inplace",
        "label": "bytes32",
        "numberOfBytes": "32"
      },
      "t_mapping(t_address,t_bool)": {
        "encoding": "mapping",
        "key": "t_address",
        "label": "mapping(address => bool)",
        "numberOfBytes": "32",
        "value": "t_bool"
      },
      "t_mapping(t_address,t_uint8)": {
        "encoding": "mapping",
        "key": "t_address",
        "label": "mapping(address => uint8)",
        "numberOfBytes": "32",
        "value": "t_uint8"
      },
      "t_mapping(t_bytes32,t_struct(RoleData)21_storage)": {
        "encoding": "mapping",
        "key": "t_bytes32",
        "label": "mapping(bytes32 => struct AccessControl.RoleData)",
        "numberOfBytes": "32",
        "value": "t_struct(RoleData)21_storage"
      },
      "t_struct(RoleData)21_storage": {
        "encoding": "inplace",
        "label": "struct AccessControl.RoleData",
        "members": [
          {
            "astId": 18,
            "contract": "contracts/AIC.sol:AIC",
            "label": "hasRole",
            "offset": 0,
            "slot": "0",
            "type": "t_mapping(t_address,t_bool)"
          },
          {
            "astId": 20,
            "contract": "contracts/AIC.sol:AIC",
            "label": "adminRole",
            "offset": 0,
            "slot": "1",
            "type": "t_bytes32"
          }
        ],
        "numberOfBytes": "64"
      },
      "t_uint256": {
        "encoding": "inplace",
        "label": "uint256",
        "numberOfBytes": "32"
      },
      "t_uint8": {
        "encoding": "inplace",
        "label": "uint8",
        "numberOfBytes": "1"
      }
    }
  }
}