{
  "address": "0x9fB375a62ACfC6b30199092283A8eea996138c1a",
  "abi": [
    {
      "inputs": [],
      "stateMutability": "nonpayable",
      "type": "constructor"
    },
    {
      "inputs": [],
      "name": "AccessControlBadConfirmation",
      "type": "error"
    },
    {
      "inputs": [
        {
          "internalType": "address",
          "name": "account",
          "type": "address"
        },
        {
          "internalType": "bytes32",
          "name": "neededRole",
          "type": "bytes32"
        }
      ],
      "name": "AccessControlUnauthorizedAccount",
      "type": "error"
    },
    {
      "anonymous": false,
      "inputs": [
        {
          "indexed": true,
          "internalType": "address",
          "name": "token",
          "type": "address"
        },
        {
          "indexed": true,
          "internalType": "address",
          "name": "spender",
          "type": "address"
        },
        {
          "indexed": false,
          "internalType": "uint256",
          "name": "amount",
          "type": "uint256"
        }
      ],
      "name": "Approved",
      "type": "event"
    },
    {
      "anonymous": false,
      "inputs": [
        {
          "indexed": true,
          "internalType": "bytes32",
          "name": "role",
          "type": "bytes32"
        },
        {
          "indexed": true,
          "internalType": "bytes32",
          "name": "previousAdminRole",
          "type": "bytes32"
        },
        {
          "indexed": true,
          "internalType": "bytes32",
          "name": "newAdminRole",
          "type": "bytes32"
        }
      ],
      "name": "RoleAdminChanged",
      "type": "event"
    },
    {
      "anonymous": false,
      "inputs": [
        {
          "indexed": true,
          "internalType": "bytes32",
          "name": "role",
          "type": "bytes32"
        },
        {
          "indexed": true,
          "internalType": "address",
          "name": "account",
          "type": "address"
        },
        {
          "indexed": true,
          "internalType": "address",
          "name": "sender",
          "type": "address"
        }
      ],
      "name": "RoleGranted",
      "type": "event"
    },
    {
      "anonymous": false,
      "inputs": [
        {
          "indexed": true,
          "internalType": "bytes32",
          "name": "role",
          "type": "bytes32"
        },
        {
          "indexed": true,
          "internalType": "address",
          "name": "account",
          "type": "address"
        },
        {
          "indexed": true,
          "internalType": "address",
          "name": "sender",
          "type": "address"
        }
      ],
      "name": "RoleRevoked",
      "type": "event"
    },
    {
      "inputs": [],
      "name": "DEFAULT_ADMIN_ROLE",
      "outputs": [
        {
          "internalType": "bytes32",
          "name": "",
          "type": "bytes32"
        }
      ],
      "stateMutability": "view",
      "type": "function"
    },
    {
      "inputs": [],
      "name": "SERVER_ROLE",
      "outputs": [
        {
          "internalType": "bytes32",
          "name": "",
          "type": "bytes32"
        }
      ],
      "stateMutability": "view",
      "type": "function"
    },
    {
      "inputs": [],
      "name": "TREASURE_ROLE",
      "outputs": [
        {
          "internalType": "bytes32",
          "name": "",
          "type": "bytes32"
        }
      ],
      "stateMutability": "view",
      "type": "function"
    },
    {
      "inputs": [
        {
          "internalType": "address",
          "name": "tokenA",
          "type": "address"
        },
        {
          "internalType": "address",
          "name": "tokenB",
          "type": "address"
        },
        {
          "internalType": "uint256",
          "name": "percent",
          "type": "uint256"
        }
      ],
      "name": "_swapTokens",
      "outputs": [],
      "stateMutability": "nonpayable",
      "type": "function"
    },
    {
      "inputs": [
        {
          "internalType": "address",
          "name": "user",
          "type": "address"
        }
      ],
      "name": "decWhitelist",
      "outputs": [],
      "stateMutability": "nonpayable",
      "type": "function"
    },
    {
      "inputs": [
        {
          "internalType": "bytes32",
          "name": "role",
          "type": "bytes32"
        }
      ],
      "name": "getRoleAdmin",
      "outputs": [
        {
          "internalType": "bytes32",
          "name": "",
          "type": "bytes32"
        }
      ],
      "stateMutability": "view",
      "type": "function"
    },
    {
      "inputs": [
        {
          "internalType": "bytes32",
          "name": "role",
          "type": "bytes32"
        },
        {
          "internalType": "address",
          "name": "account",
          "type": "address"
        }
      ],
      "name": "grantRole",
      "outputs": [],
      "stateMutability": "nonpayable",
      "type": "function"
    },
    {
      "inputs": [
        {
          "internalType": "bytes32",
          "name": "role",
          "type": "bytes32"
        },
        {
          "internalType": "address",
          "name": "account",
          "type": "address"
        }
      ],
      "name": "hasRole",
      "outputs": [
        {
          "internalType": "bool",
          "name": "",
          "type": "bool"
        }
      ],
      "stateMutability": "view",
      "type": "function"
    },
    {
      "inputs": [],
      "name": "price",
      "outputs": [
        {
          "internalType": "uint256",
          "name": "",
          "type": "uint256"
        }
      ],
      "stateMutability": "view",
      "type": "function"
    },
    {
      "inputs": [],
      "name": "priceOP",
      "outputs": [
        {
          "internalType": "uint256",
          "name": "",
          "type": "uint256"
        }
      ],
      "stateMutability": "view",
      "type": "function"
    },
    {
      "inputs": [],
      "name": "priceZK",
      "outputs": [
        {
          "internalType": "uint256",
          "name": "",
          "type": "uint256"
        }
      ],
      "stateMutability": "view",
      "type": "function"
    },
    {
      "inputs": [
        {
          "internalType": "bytes32",
          "name": "role",
          "type": "bytes32"
        },
        {
          "internalType": "address",
          "name": "callerConfirmation",
          "type": "address"
        }
      ],
      "name": "renounceRole",
      "outputs": [],
      "stateMutability": "nonpayable",
      "type": "function"
    },
    {
      "inputs": [
        {
          "internalType": "bytes32",
          "name": "role",
          "type": "bytes32"
        },
        {
          "internalType": "address",
          "name": "account",
          "type": "address"
        }
      ],
      "name": "revokeRole",
      "outputs": [],
      "stateMutability": "nonpayable",
      "type": "function"
    },
    {
      "inputs": [],
      "name": "server",
      "outputs": [
        {
          "internalType": "address",
          "name": "",
          "type": "address"
        }
      ],
      "stateMutability": "view",
      "type": "function"
    },
    {
      "inputs": [
        {
          "internalType": "uint256",
          "name": "_price",
          "type": "uint256"
        }
      ],
      "name": "setPrice",
      "outputs": [],
      "stateMutability": "nonpayable",
      "type": "function"
    },
    {
      "inputs": [
        {
          "internalType": "address",
          "name": "_server",
          "type": "address"
        }
      ],
      "name": "setServer",
      "outputs": [],
      "stateMutability": "nonpayable",
      "type": "function"
    },
    {
      "inputs": [
        {
          "internalType": "contract IUniswapV2Router02",
          "name": "_uniswapRouter",
          "type": "address"
        }
      ],
      "name": "setUniswapRouter",
      "outputs": [],
      "stateMutability": "nonpayable",
      "type": "function"
    },
    {
      "inputs": [
        {
          "internalType": "bytes4",
          "name": "interfaceId",
          "type": "bytes4"
        }
      ],
      "name": "supportsInterface",
      "outputs": [
        {
          "internalType": "bool",
          "name": "",
          "type": "bool"
        }
      ],
      "stateMutability": "view",
      "type": "function"
    },
    {
      "inputs": [],
      "name": "uniswapRouter",
      "outputs": [
        {
          "internalType": "contract IUniswapV2Router02",
          "name": "",
          "type": "address"
        }
      ],
      "stateMutability": "view",
      "type": "function"
    },
    {
      "inputs": [
        {
          "internalType": "address",
          "name": "",
          "type": "address"
        }
      ],
      "name": "whitelist",
      "outputs": [
        {
          "internalType": "uint8",
          "name": "",
          "type": "uint8"
        }
      ],
      "stateMutability": "view",
      "type": "function"
    },
    {
      "inputs": [],
      "name": "withdraw",
      "outputs": [],
      "stateMutability": "nonpayable",
      "type": "function"
    },
    {
      "inputs": [
        {
          "internalType": "address",
          "name": "token",
          "type": "address"
        },
        {
          "internalType": "uint256",
          "name": "amount",
          "type": "uint256"
        }
      ],
      "name": "withdrawTokens",
      "outputs": [],
      "stateMutability": "nonpayable",
      "type": "function"
    },
    {
      "stateMutability": "payable",
      "type": "receive"
    }
  ],
  "transactionHash": "0x291eaf5e6feacc0437a8f6be5844831646f4f733365e16051ce20a46f33ad6a2",
  "args": [],
  "numDeployments": 2,
  "solcInputHash": "427208738bacd80d773384c56023ffc5",
  "bytecode": "0x608060405234801561001057600080fd5b50600480546001600160a01b03191673edf6066a2b290c185783862c7f4776a2c8077ad117905546610144036100505766b1a2bc2ec5000060025561005b565b655af3107a40006002555b6100666000336100c2565b506100917fa8a7bc421f721cb936ea99efdad79237e6ee0b871a2a08cf648691f9584cdc77336100c2565b506100bc7f067480c53f9603ecfd957b375116b3dc33a34aeb0454caeb7e1e40e1dbd9997a336100c2565b5061016e565b6000828152602081815260408083206001600160a01b038516845290915281205460ff16610164576000838152602081815260408083206001600160a01b03861684529091529020805460ff1916600117905561011c3390565b6001600160a01b0316826001600160a01b0316847f2f8788117e7eff1d82e926ec794901d17c78024a50270940304540a733656f0d60405160405180910390a4506001610168565b5060005b92915050565b6110d48061017d6000396000f3fe6080604052600436106101395760003560e01c80637fb72bd9116100ab578063a217fddf1161006f578063a217fddf1461048b578063bea9849e146104a0578063d547741f146104c0578063f19a0b54146104e0578063fc6a76cd14610500578063fd922a421461051b57600080fd5b80637fb72bd9146103d357806391b7f5ed146103f357806391d14854146104135780639b19251a14610433578063a035b1fe1461047557600080fd5b80632f2ff15d116100fd5780632f2ff15d146102f257806336568abe146103125780633ccfd60b14610332578063735de9f7146103475780637d0e1cbb1461037f5780637f8340971461039f57600080fd5b806301ffc9a71461020f57806306b091f9146102445780630c0ed0a11461026657806318cf28341461028e578063248a9ca3146102c257600080fd5b3661020a5760025434146101845760405162461bcd60e51b815260206004820152600d60248201526c6e6f742074686520707269636560981b60448201526064015b60405180910390fd5b6003546001600160a01b03166108fc600a6101a0476007610d7a565b6101aa9190610d91565b6040518115909202916000818181858888f193505050501580156101d2573d6000803e3d6000fd5b50336000908152600160205260408120805460ff16916101f183610db3565b91906101000a81548160ff021916908360ff1602179055005b600080fd5b34801561021b57600080fd5b5061022f61022a366004610dd2565b61053b565b60405190151581526020015b60405180910390f35b34801561025057600080fd5b5061026461025f366004610e18565b610572565b005b34801561027257600080fd5b50610280655af3107a400081565b60405190815260200161023b565b34801561029a57600080fd5b506102807fa8a7bc421f721cb936ea99efdad79237e6ee0b871a2a08cf648691f9584cdc7781565b3480156102ce57600080fd5b506102806102dd366004610e44565b60009081526020819052604090206001015490565b3480156102fe57600080fd5b5061026461030d366004610e5d565b6106cb565b34801561031e57600080fd5b5061026461032d366004610e5d565b6106f0565b34801561033e57600080fd5b50610264610728565b34801561035357600080fd5b50600454610367906001600160a01b031681565b6040516001600160a01b03909116815260200161023b565b34801561038b57600080fd5b5061026461039a366004610e8d565b6107cd565b3480156103ab57600080fd5b506102807f067480c53f9603ecfd957b375116b3dc33a34aeb0454caeb7e1e40e1dbd9997a81565b3480156103df57600080fd5b506102646103ee366004610eaa565b61089b565b3480156103ff57600080fd5b5061026461040e366004610e44565b610b62565b34801561041f57600080fd5b5061022f61042e366004610e5d565b610b73565b34801561043f57600080fd5b5061046361044e366004610e8d565b60016020526000908152604090205460ff1681565b60405160ff909116815260200161023b565b34801561048157600080fd5b5061028060025481565b34801561049757600080fd5b50610280600081565b3480156104ac57600080fd5b506102646104bb366004610e8d565b610b9c565b3480156104cc57600080fd5b506102646104db366004610e5d565b610bca565b3480156104ec57600080fd5b506102646104fb366004610e8d565b610bef565b34801561050c57600080fd5b5061028066b1a2bc2ec5000081565b34801561052757600080fd5b50600354610367906001600160a01b031681565b60006001600160e01b03198216637965db0b60e01b148061056c57506301ffc9a760e01b6001600160e01b03198316145b92915050565b7f067480c53f9603ecfd957b375116b3dc33a34aeb0454caeb7e1e40e1dbd9997a61059c81610c1d565b6040516370a0823160e01b815230600482015282906001600160a01b038516906370a0823190602401602060405180830381865afa1580156105e2573d6000803e3d6000fd5b505050506040513d601f19601f820116820180604052508101906106069190610eeb565b10156106545760405162461bcd60e51b815260206004820152601a60248201527f496e73756666696369656e7420746f6b656e2062616c616e6365000000000000604482015260640161017b565b60405163a9059cbb60e01b8152336004820152602481018390526001600160a01b0384169063a9059cbb906044016020604051808303816000875af11580156106a1573d6000803e3d6000fd5b505050506040513d601f19601f820116820180604052508101906106c59190610f04565b50505050565b6000828152602081905260409020600101546106e681610c1d565b6106c58383610c2a565b6001600160a01b03811633146107195760405163334bd91960e11b815260040160405180910390fd5b6107238282610cbc565b505050565b7f067480c53f9603ecfd957b375116b3dc33a34aeb0454caeb7e1e40e1dbd9997a61075281610c1d565b47806107a05760405162461bcd60e51b815260206004820152601a60248201527f496e73756666696369656e74204d415449432062616c616e6365000000000000604482015260640161017b565b604051339082156108fc029083906000818181858888f19350505050158015610723573d6000803e3d6000fd5b7fa8a7bc421f721cb936ea99efdad79237e6ee0b871a2a08cf648691f9584cdc776107f781610c1d565b6001600160a01b03821660009081526001602052604090205460ff166108575760405162461bcd60e51b8152602060048201526015602482015274155cd95c881b9bdd081a5b881dda1a5d195b1a5cdd605a1b604482015260640161017b565b6001600160a01b0382166000908152600160205260408120805460ff169161087e83610f26565b91906101000a81548160ff021916908360ff160217905550505050565b7fa8a7bc421f721cb936ea99efdad79237e6ee0b871a2a08cf648691f9584cdc776108c581610c1d565b6040516370a0823160e01b815230600482015260009060649084906001600160a01b038816906370a0823190602401602060405180830381865afa158015610911573d6000803e3d6000fd5b505050506040513d601f19601f820116820180604052508101906109359190610eeb565b61093f9190610d7a565b6109499190610d91565b90506000811161099b5760405162461bcd60e51b815260206004820152601a60248201527f496e73756666696369656e7420746f6b656e2062616c616e6365000000000000604482015260640161017b565b60405163095ea7b360e01b815273edf6066a2b290c185783862c7f4776a2c8077ad16004820152602481018290526001600160a01b0386169063095ea7b3906044016020604051808303816000875af11580156109fc573d6000803e3d6000fd5b505050506040513d601f19601f82011682018060405250810190610a209190610f04565b610a645760405162461bcd60e51b8152602060048201526015602482015274151bdad95b88185c1c1c9bdd985b0819985a5b1959605a1b604482015260640161017b565b6040805160028082526060820183526000926020830190803683370190505090508581600081518110610a9957610a99610f59565b60200260200101906001600160a01b031690816001600160a01b0316815250508481600181518110610acd57610acd610f59565b6001600160a01b039283166020918202929092010152600480546040516338ed173960e01b81529216916338ed173991610b1291869160009187913091429101610f6f565b6000604051808303816000875af1158015610b31573d6000803e3d6000fd5b505050506040513d6000823e601f3d908101601f19168201604052610b599190810190610fe0565b50505050505050565b6000610b6d81610c1d565b50600255565b6000918252602082815260408084206001600160a01b0393909316845291905290205460ff1690565b6000610ba781610c1d565b50600480546001600160a01b0319166001600160a01b0392909216919091179055565b600082815260208190526040902060010154610be581610c1d565b6106c58383610cbc565b6000610bfa81610c1d565b50600380546001600160a01b0319166001600160a01b0392909216919091179055565b610c278133610d27565b50565b6000610c368383610b73565b610cb4576000838152602081815260408083206001600160a01b03861684529091529020805460ff19166001179055610c6c3390565b6001600160a01b0316826001600160a01b0316847f2f8788117e7eff1d82e926ec794901d17c78024a50270940304540a733656f0d60405160405180910390a450600161056c565b50600061056c565b6000610cc88383610b73565b15610cb4576000838152602081815260408083206001600160a01b0386168085529252808320805460ff1916905551339286917ff6391f5c32d9c69d2a47ea670b442974b53935d1edc7fd64eb21e047a839171b9190a450600161056c565b610d318282610b73565b610d605760405163e2517d3f60e01b81526001600160a01b03821660048201526024810183905260440161017b565b5050565b634e487b7160e01b600052601160045260246000fd5b808202811582820484141761056c5761056c610d64565b600082610dae57634e487b7160e01b600052601260045260246000fd5b500490565b600060ff821660ff8103610dc957610dc9610d64565b60010192915050565b600060208284031215610de457600080fd5b81356001600160e01b031981168114610dfc57600080fd5b9392505050565b6001600160a01b0381168114610c2757600080fd5b60008060408385031215610e2b57600080fd5b8235610e3681610e03565b946020939093013593505050565b600060208284031215610e5657600080fd5b5035919050565b60008060408385031215610e7057600080fd5b823591506020830135610e8281610e03565b809150509250929050565b600060208284031215610e9f57600080fd5b8135610dfc81610e03565b600080600060608486031215610ebf57600080fd5b8335610eca81610e03565b92506020840135610eda81610e03565b929592945050506040919091013590565b600060208284031215610efd57600080fd5b5051919050565b600060208284031215610f1657600080fd5b81518015158114610dfc57600080fd5b600060ff821680610f3957610f39610d64565b6000190192915050565b634e487b7160e01b600052604160045260246000fd5b634e487b7160e01b600052603260045260246000fd5b600060a082018783526020878185015260a0604085015281875180845260c086019150828901935060005b81811015610fbf5784516001600160a01b031683529383019391830191600101610f9a565b50506001600160a01b03969096166060850152505050608001529392505050565b60006020808385031215610ff357600080fd5b825167ffffffffffffffff8082111561100b57600080fd5b818501915085601f83011261101f57600080fd5b81518181111561103157611031610f43565b8060051b604051601f19603f8301168101818110858211171561105657611056610f43565b60405291825284820192508381018501918883111561107457600080fd5b938501935b8285101561109257845184529385019392850192611079565b9897505050505050505056fea26469706673582212209a9f10aeec1e82d8693e4a94ca4efac2fb6abce810df273e3c8a95cb6819ee2d64736f6c63430008140033",
  "devdoc": {
    "errors": {
      "AccessControlBadConfirmation()": [
        {
          "details": "The caller of a function is not the expected one. NOTE: Don't confuse with {AccessControlUnauthorizedAccount}."
        }
      ],
      "AccessControlUnauthorizedAccount(address,bytes32)": [
        {
          "details": "The `account` is missing a role."
        }
      ]
    },
    "events": {
      "RoleAdminChanged(bytes32,bytes32,bytes32)": {
        "details": "Emitted when `newAdminRole` is set as ``role``'s admin role, replacing `previousAdminRole` `DEFAULT_ADMIN_ROLE` is the starting admin for all roles, despite {RoleAdminChanged} not being emitted signaling this."
      },
      "RoleGranted(bytes32,address,address)": {
        "details": "Emitted when `account` is granted `role`. `sender` is the account that originated the contract call, an admin role bearer except when using {AccessControl-_setupRole}."
      },
      "RoleRevoked(bytes32,address,address)": {
        "details": "Emitted when `account` is revoked `role`. `sender` is the account that originated the contract call:   - if using `revokeRole`, it is the admin role bearer   - if using `renounceRole`, it is the role bearer (i.e. `account`)"
      }
    },
    "kind": "dev",
    "methods": {
      "_swapTokens(address,address,uint256)": {
        "details": "This function checks the balance of tokenA, approves the Uniswap router to spend it,     and executes the swap for tokenB.",
        "params": {
          "percent": "The amount of tokenA to swap.",
          "tokenA": "The address of the token being swapped from.",
          "tokenB": "The address of the token being swapped to."
        }
      },
      "getRoleAdmin(bytes32)": {
        "details": "Returns the admin role that controls `role`. See {grantRole} and {revokeRole}. To change a role's admin, use {_setRoleAdmin}."
      },
      "grantRole(bytes32,address)": {
        "details": "Grants `role` to `account`. If `account` had not been already granted `role`, emits a {RoleGranted} event. Requirements: - the caller must have ``role``'s admin role. May emit a {RoleGranted} event."
      },
      "hasRole(bytes32,address)": {
        "details": "Returns `true` if `account` has been granted `role`."
      },
      "renounceRole(bytes32,address)": {
        "details": "Revokes `role` from the calling account. Roles are often managed via {grantRole} and {revokeRole}: this function's purpose is to provide a mechanism for accounts to lose their privileges if they are compromised (such as when a trusted device is misplaced). If the calling account had been revoked `role`, emits a {RoleRevoked} event. Requirements: - the caller must be `callerConfirmation`. May emit a {RoleRevoked} event."
      },
      "revokeRole(bytes32,address)": {
        "details": "Revokes `role` from `account`. If `account` had been granted `role`, emits a {RoleRevoked} event. Requirements: - the caller must have ``role``'s admin role. May emit a {RoleRevoked} event."
      },
      "setPrice(uint256)": {
        "params": {
          "_price": "The new price to set."
        }
      },
      "setUniswapRouter(address)": {
        "params": {
          "_uniswapRouter": "The new Uniswap router address."
        }
      },
      "supportsInterface(bytes4)": {
        "details": "See {IERC165-supportsInterface}."
      },
      "withdrawTokens(address,uint256)": {
        "params": {
          "amount": "The amount of tokens to withdraw",
          "token": "The address of the token to withdraw (USDT or USDC)"
        }
      }
    },
    "version": 1
  },
  "userdoc": {
    "kind": "user",
    "methods": {
      "_swapTokens(address,address,uint256)": {
        "notice": "Performs a token swap between two ERC20 tokens."
      },
      "setPrice(uint256)": {
        "notice": "Sets the price."
      },
      "setUniswapRouter(address)": {
        "notice": "Sets the Uniswap router address."
      },
      "withdrawTokens(address,uint256)": {
        "notice": "Withdraws USDT or USDC from the contract"
      }
    },
    "version": 1
  },
  "storageLayout": {
    "storage": [
      {
        "astId": 26,
        "contract": "contracts/AIC2.sol:AIC2",
        "label": "_roles",
        "offset": 0,
        "slot": "0",
        "type": "t_mapping(t_bytes32,t_struct(RoleData)21_storage)"
      },
      {
        "astId": 1079,
        "contract": "contracts/AIC2.sol:AIC2",
        "label": "whitelist",
        "offset": 0,
        "slot": "1",
        "type": "t_mapping(t_address,t_uint8)"
      },
      {
        "astId": 1097,
        "contract": "contracts/AIC2.sol:AIC2",
        "label": "price",
        "offset": 0,
        "slot": "2",
        "type": "t_uint256"
      },
      {
        "astId": 1099,
        "contract": "contracts/AIC2.sol:AIC2",
        "label": "server",
        "offset": 0,
        "slot": "3",
        "type": "t_address"
      },
      {
        "astId": 1105,
        "contract": "contracts/AIC2.sol:AIC2",
        "label": "uniswapRouter",
        "offset": 0,
        "slot": "4",
        "type": "t_contract(IUniswapV2Router02)1066"
      }
    ],
    "types": {
      "t_address": {
        "encoding": "inplace",
        "label": "address",
        "numberOfBytes": "20"
      },
      "t_bool": {
        "encoding": "inplace",
        "label": "bool",
        "numberOfBytes": "1"
      },
      "t_bytes32": {
        "encoding": "inplace",
        "label": "bytes32",
        "numberOfBytes": "32"
      },
      "t_contract(IUniswapV2Router02)1066": {
        "encoding": "inplace",
        "label": "contract IUniswapV2Router02",
        "numberOfBytes": "20"
      },
      "t_mapping(t_address,t_bool)": {
        "encoding": "mapping",
        "key": "t_address",
        "label": "mapping(address => bool)",
        "numberOfBytes": "32",
        "value": "t_bool"
      },
      "t_mapping(t_address,t_uint8)": {
        "encoding": "mapping",
        "key": "t_address",
        "label": "mapping(address => uint8)",
        "numberOfBytes": "32",
        "value": "t_uint8"
      },
      "t_mapping(t_bytes32,t_struct(RoleData)21_storage)": {
        "encoding": "mapping",
        "key": "t_bytes32",
        "label": "mapping(bytes32 => struct AccessControl.RoleData)",
        "numberOfBytes": "32",
        "value": "t_struct(RoleData)21_storage"
      },
      "t_struct(RoleData)21_storage": {
        "encoding": "inplace",
        "label": "struct AccessControl.RoleData",
        "members": [
          {
            "astId": 18,
            "contract": "contracts/AIC2.sol:AIC2",
            "label": "hasRole",
            "offset": 0,
            "slot": "0",
            "type": "t_mapping(t_address,t_bool)"
          },
          {
            "astId": 20,
            "contract": "contracts/AIC2.sol:AIC2",
            "label": "adminRole",
            "offset": 0,
            "slot": "1",
            "type": "t_bytes32"
          }
        ],
        "numberOfBytes": "64"
      },
      "t_uint256": {
        "encoding": "inplace",
        "label": "uint256",
        "numberOfBytes": "32"
      },
      "t_uint8": {
        "encoding": "inplace",
        "label": "uint8",
        "numberOfBytes": "1"
      }
    }
  }
}