{
  "address": "0xb13b7A60C88e1Ba2a204423aB420C60ACBA62c53",
  "abi": [
    {
      "inputs": [],
      "stateMutability": "nonpayable",
      "type": "constructor"
    },
    {
      "inputs": [],
      "name": "AccessControlBadConfirmation",
      "type": "error"
    },
    {
      "inputs": [
        {
          "internalType": "address",
          "name": "account",
          "type": "address"
        },
        {
          "internalType": "bytes32",
          "name": "neededRole",
          "type": "bytes32"
        }
      ],
      "name": "AccessControlUnauthorizedAccount",
      "type": "error"
    },
    {
      "anonymous": false,
      "inputs": [
        {
          "indexed": true,
          "internalType": "address",
          "name": "token",
          "type": "address"
        },
        {
          "indexed": true,
          "internalType": "address",
          "name": "spender",
          "type": "address"
        },
        {
          "indexed": false,
          "internalType": "uint256",
          "name": "amount",
          "type": "uint256"
        }
      ],
      "name": "Approved",
      "type": "event"
    },
    {
      "anonymous": false,
      "inputs": [
        {
          "indexed": true,
          "internalType": "bytes32",
          "name": "role",
          "type": "bytes32"
        },
        {
          "indexed": true,
          "internalType": "bytes32",
          "name": "previousAdminRole",
          "type": "bytes32"
        },
        {
          "indexed": true,
          "internalType": "bytes32",
          "name": "newAdminRole",
          "type": "bytes32"
        }
      ],
      "name": "RoleAdminChanged",
      "type": "event"
    },
    {
      "anonymous": false,
      "inputs": [
        {
          "indexed": true,
          "internalType": "bytes32",
          "name": "role",
          "type": "bytes32"
        },
        {
          "indexed": true,
          "internalType": "address",
          "name": "account",
          "type": "address"
        },
        {
          "indexed": true,
          "internalType": "address",
          "name": "sender",
          "type": "address"
        }
      ],
      "name": "RoleGranted",
      "type": "event"
    },
    {
      "anonymous": false,
      "inputs": [
        {
          "indexed": true,
          "internalType": "bytes32",
          "name": "role",
          "type": "bytes32"
        },
        {
          "indexed": true,
          "internalType": "address",
          "name": "account",
          "type": "address"
        },
        {
          "indexed": true,
          "internalType": "address",
          "name": "sender",
          "type": "address"
        }
      ],
      "name": "RoleRevoked",
      "type": "event"
    },
    {
      "inputs": [],
      "name": "DEFAULT_ADMIN_ROLE",
      "outputs": [
        {
          "internalType": "bytes32",
          "name": "",
          "type": "bytes32"
        }
      ],
      "stateMutability": "view",
      "type": "function"
    },
    {
      "inputs": [],
      "name": "SERVER_ROLE",
      "outputs": [
        {
          "internalType": "bytes32",
          "name": "",
          "type": "bytes32"
        }
      ],
      "stateMutability": "view",
      "type": "function"
    },
    {
      "inputs": [],
      "name": "TREASURE_ROLE",
      "outputs": [
        {
          "internalType": "bytes32",
          "name": "",
          "type": "bytes32"
        }
      ],
      "stateMutability": "view",
      "type": "function"
    },
    {
      "inputs": [
        {
          "internalType": "address",
          "name": "sender",
          "type": "address"
        },
        {
          "internalType": "address",
          "name": "tokenA",
          "type": "address"
        },
        {
          "internalType": "address",
          "name": "tokenB",
          "type": "address"
        },
        {
          "internalType": "uint256",
          "name": "percent",
          "type": "uint256"
        }
      ],
      "name": "_swapTokens",
      "outputs": [],
      "stateMutability": "nonpayable",
      "type": "function"
    },
    {
      "inputs": [
        {
          "internalType": "address",
          "name": "token",
          "type": "address"
        },
        {
          "internalType": "address",
          "name": "spender",
          "type": "address"
        },
        {
          "internalType": "uint256",
          "name": "amount",
          "type": "uint256"
        }
      ],
      "name": "approveToken",
      "outputs": [],
      "stateMutability": "nonpayable",
      "type": "function"
    },
    {
      "inputs": [
        {
          "internalType": "address",
          "name": "user",
          "type": "address"
        }
      ],
      "name": "decWhitelist",
      "outputs": [],
      "stateMutability": "nonpayable",
      "type": "function"
    },
    {
      "inputs": [
        {
          "internalType": "bytes32",
          "name": "role",
          "type": "bytes32"
        }
      ],
      "name": "getRoleAdmin",
      "outputs": [
        {
          "internalType": "bytes32",
          "name": "",
          "type": "bytes32"
        }
      ],
      "stateMutability": "view",
      "type": "function"
    },
    {
      "inputs": [
        {
          "internalType": "bytes32",
          "name": "role",
          "type": "bytes32"
        },
        {
          "internalType": "address",
          "name": "account",
          "type": "address"
        }
      ],
      "name": "grantRole",
      "outputs": [],
      "stateMutability": "nonpayable",
      "type": "function"
    },
    {
      "inputs": [
        {
          "internalType": "bytes32",
          "name": "role",
          "type": "bytes32"
        },
        {
          "internalType": "address",
          "name": "account",
          "type": "address"
        }
      ],
      "name": "hasRole",
      "outputs": [
        {
          "internalType": "bool",
          "name": "",
          "type": "bool"
        }
      ],
      "stateMutability": "view",
      "type": "function"
    },
    {
      "inputs": [],
      "name": "price",
      "outputs": [
        {
          "internalType": "uint256",
          "name": "",
          "type": "uint256"
        }
      ],
      "stateMutability": "view",
      "type": "function"
    },
    {
      "inputs": [],
      "name": "priceOP",
      "outputs": [
        {
          "internalType": "uint256",
          "name": "",
          "type": "uint256"
        }
      ],
      "stateMutability": "view",
      "type": "function"
    },
    {
      "inputs": [],
      "name": "priceZK",
      "outputs": [
        {
          "internalType": "uint256",
          "name": "",
          "type": "uint256"
        }
      ],
      "stateMutability": "view",
      "type": "function"
    },
    {
      "inputs": [
        {
          "internalType": "bytes32",
          "name": "role",
          "type": "bytes32"
        },
        {
          "internalType": "address",
          "name": "callerConfirmation",
          "type": "address"
        }
      ],
      "name": "renounceRole",
      "outputs": [],
      "stateMutability": "nonpayable",
      "type": "function"
    },
    {
      "inputs": [
        {
          "internalType": "bytes32",
          "name": "role",
          "type": "bytes32"
        },
        {
          "internalType": "address",
          "name": "account",
          "type": "address"
        }
      ],
      "name": "revokeRole",
      "outputs": [],
      "stateMutability": "nonpayable",
      "type": "function"
    },
    {
      "inputs": [],
      "name": "server",
      "outputs": [
        {
          "internalType": "address",
          "name": "",
          "type": "address"
        }
      ],
      "stateMutability": "view",
      "type": "function"
    },
    {
      "inputs": [
        {
          "internalType": "uint256",
          "name": "_price",
          "type": "uint256"
        }
      ],
      "name": "setPrice",
      "outputs": [],
      "stateMutability": "nonpayable",
      "type": "function"
    },
    {
      "inputs": [
        {
          "internalType": "address",
          "name": "_server",
          "type": "address"
        }
      ],
      "name": "setServer",
      "outputs": [],
      "stateMutability": "nonpayable",
      "type": "function"
    },
    {
      "inputs": [
        {
          "internalType": "contract IUniswapV2Router02",
          "name": "_uniswapRouter",
          "type": "address"
        }
      ],
      "name": "setUniswapRouter",
      "outputs": [],
      "stateMutability": "nonpayable",
      "type": "function"
    },
    {
      "inputs": [
        {
          "internalType": "bytes4",
          "name": "interfaceId",
          "type": "bytes4"
        }
      ],
      "name": "supportsInterface",
      "outputs": [
        {
          "internalType": "bool",
          "name": "",
          "type": "bool"
        }
      ],
      "stateMutability": "view",
      "type": "function"
    },
    {
      "inputs": [],
      "name": "uniswapRouter",
      "outputs": [
        {
          "internalType": "contract IUniswapV2Router02",
          "name": "",
          "type": "address"
        }
      ],
      "stateMutability": "view",
      "type": "function"
    },
    {
      "inputs": [
        {
          "internalType": "address",
          "name": "",
          "type": "address"
        }
      ],
      "name": "whitelist",
      "outputs": [
        {
          "internalType": "uint8",
          "name": "",
          "type": "uint8"
        }
      ],
      "stateMutability": "view",
      "type": "function"
    },
    {
      "inputs": [],
      "name": "withdraw",
      "outputs": [],
      "stateMutability": "nonpayable",
      "type": "function"
    },
    {
      "inputs": [
        {
          "internalType": "address",
          "name": "token",
          "type": "address"
        },
        {
          "internalType": "uint256",
          "name": "amount",
          "type": "uint256"
        }
      ],
      "name": "withdrawTokens",
      "outputs": [],
      "stateMutability": "nonpayable",
      "type": "function"
    },
    {
      "stateMutability": "payable",
      "type": "receive"
    }
  ],
  "transactionHash": "0xac55a63a7603b588d9125db0d0792c631a477d463145667134229bef7422b45a",
  "args": [],
  "numDeployments": 3,
  "solcInputHash": "7709e522efdbc4a6c4a31d07a818c8c5",
  "bytecode": "0x608060405234801561001057600080fd5b50600480546001600160a01b03191673edf6066a2b290c185783862c7f4776a2c8077ad117905546610144036100505766b1a2bc2ec5000060025561005b565b655af3107a40006002555b6100666000336100c2565b506100917fa8a7bc421f721cb936ea99efdad79237e6ee0b871a2a08cf648691f9584cdc77336100c2565b506100bc7f067480c53f9603ecfd957b375116b3dc33a34aeb0454caeb7e1e40e1dbd9997a336100c2565b5061016e565b6000828152602081815260408083206001600160a01b038516845290915281205460ff16610164576000838152602081815260408083206001600160a01b03861684529091529020805460ff1916600117905561011c3390565b6001600160a01b0316826001600160a01b0316847f2f8788117e7eff1d82e926ec794901d17c78024a50270940304540a733656f0d60405160405180910390a4506001610168565b5060005b92915050565b611276806200017e6000396000f3fe6080604052600436106101445760003560e01c80637f834097116100b6578063bea9849e1161006f578063bea9849e14610499578063d547741f146104b9578063da3e3397146104d9578063f19a0b54146104f9578063fc6a76cd14610519578063fd922a421461053457600080fd5b80637f834097146103b857806391b7f5ed146103ec57806391d148541461040c5780639b19251a1461042c578063a035b1fe1461046e578063a217fddf1461048457600080fd5b8063248a9ca311610108578063248a9ca3146102db5780632f2ff15d1461030b57806336568abe1461032b5780633ccfd60b1461034b578063735de9f7146103605780637d0e1cbb1461039857600080fd5b806301ffc9a71461021a57806306b091f91461024f5780630c0ed0a11461027157806318cf28341461029957806322ba5d57146102bb57600080fd5b3661021557600254341461018f5760405162461bcd60e51b815260206004820152600d60248201526c6e6f742074686520707269636560981b60448201526064015b60405180910390fd5b6003546001600160a01b03166108fc600a6101ab476007610eab565b6101b59190610ec2565b6040518115909202916000818181858888f193505050501580156101dd573d6000803e3d6000fd5b50336000908152600160205260408120805460ff16916101fc83610ee4565b91906101000a81548160ff021916908360ff1602179055005b600080fd5b34801561022657600080fd5b5061023a610235366004610f03565b610554565b60405190151581526020015b60405180910390f35b34801561025b57600080fd5b5061026f61026a366004610f49565b61058b565b005b34801561027d57600080fd5b5061028b655af3107a400081565b604051908152602001610246565b3480156102a557600080fd5b5061028b60008051602061122183398151915281565b3480156102c757600080fd5b5061026f6102d6366004610f75565b6106e4565b3480156102e757600080fd5b5061028b6102f6366004610fc6565b60009081526020819052604090206001015490565b34801561031757600080fd5b5061026f610326366004610fdf565b610a9a565b34801561033757600080fd5b5061026f610346366004610fdf565b610abf565b34801561035757600080fd5b5061026f610af7565b34801561036c57600080fd5b50600454610380906001600160a01b031681565b6040516001600160a01b039091168152602001610246565b3480156103a457600080fd5b5061026f6103b336600461100f565b610b9c565b3480156103c457600080fd5b5061028b7f067480c53f9603ecfd957b375116b3dc33a34aeb0454caeb7e1e40e1dbd9997a81565b3480156103f857600080fd5b5061026f610407366004610fc6565b610bb8565b34801561041857600080fd5b5061023a610427366004610fdf565b610bc9565b34801561043857600080fd5b5061045c61044736600461100f565b60016020526000908152604090205460ff1681565b60405160ff9091168152602001610246565b34801561047a57600080fd5b5061028b60025481565b34801561049057600080fd5b5061028b600081565b3480156104a557600080fd5b5061026f6104b436600461100f565b610bf2565b3480156104c557600080fd5b5061026f6104d4366004610fdf565b610c20565b3480156104e557600080fd5b5061026f6104f436600461102c565b610c45565b34801561050557600080fd5b5061026f61051436600461100f565b610d24565b34801561052557600080fd5b5061028b66b1a2bc2ec5000081565b34801561054057600080fd5b50600354610380906001600160a01b031681565b60006001600160e01b03198216637965db0b60e01b148061058557506301ffc9a760e01b6001600160e01b03198316145b92915050565b7f067480c53f9603ecfd957b375116b3dc33a34aeb0454caeb7e1e40e1dbd9997a6105b581610d52565b6040516370a0823160e01b815230600482015282906001600160a01b038516906370a0823190602401602060405180830381865afa1580156105fb573d6000803e3d6000fd5b505050506040513d601f19601f8201168201806040525081019061061f919061106d565b101561066d5760405162461bcd60e51b815260206004820152601a60248201527f496e73756666696369656e7420746f6b656e2062616c616e63650000000000006044820152606401610186565b60405163a9059cbb60e01b8152336004820152602481018390526001600160a01b0384169063a9059cbb906044016020604051808303816000875af11580156106ba573d6000803e3d6000fd5b505050506040513d601f19601f820116820180604052508101906106de9190611086565b50505050565b6000805160206112218339815191526106fc81610d52565b6001600160a01b03851660009081526001602052604090205460ff166107645760405162461bcd60e51b815260206004820152601760248201527f73656e646572206e6f7420696e2077686974656c6973740000000000000000006044820152606401610186565b6001600160a01b0385166000908152600160205260408120805460ff169161078b836110a8565b825460ff9182166101009390930a9283029190920219909116179055506040516370a0823160e01b815230600482015260009060649084906001600160a01b038816906370a0823190602401602060405180830381865afa1580156107f4573d6000803e3d6000fd5b505050506040513d601f19601f82011682018060405250810190610818919061106d565b6108229190610eab565b61082c9190610ec2565b90506000811161087e5760405162461bcd60e51b815260206004820152601a60248201527f496e73756666696369656e7420746f6b656e2062616c616e63650000000000006044820152606401610186565b60405163095ea7b360e01b815273edf6066a2b290c185783862c7f4776a2c8077ad16004820152602481018290526001600160a01b0386169063095ea7b3906044016020604051808303816000875af11580156108df573d6000803e3d6000fd5b505050506040513d601f19601f820116820180604052508101906109039190611086565b6109475760405162461bcd60e51b8152602060048201526015602482015274151bdad95b88185c1c1c9bdd985b0819985a5b1959605a1b6044820152606401610186565b60405181815273edf6066a2b290c185783862c7f4776a2c8077ad1906001600160a01b038716907f80da462ebfbe41cfc9bc015e7a9a3c7a2a73dbccede72d8ceb583606c27f8f909060200160405180910390a360408051600280825260608201835260009260208301908036833701905050905085816000815181106109d0576109d06110db565b60200260200101906001600160a01b031690816001600160a01b0316815250508481600181518110610a0457610a046110db565b6001600160a01b039283166020918202929092010152600480546040516338ed173960e01b81529216916338ed173991610a49918691600091879130914291016110f1565b6000604051808303816000875af1158015610a68573d6000803e3d6000fd5b505050506040513d6000823e601f3d908101601f19168201604052610a909190810190611162565b5050505050505050565b600082815260208190526040902060010154610ab581610d52565b6106de8383610d5f565b6001600160a01b0381163314610ae85760405163334bd91960e11b815260040160405180910390fd5b610af28282610df1565b505050565b7f067480c53f9603ecfd957b375116b3dc33a34aeb0454caeb7e1e40e1dbd9997a610b2181610d52565b4780610b6f5760405162461bcd60e51b815260206004820152601a60248201527f496e73756666696369656e74204d415449432062616c616e63650000000000006044820152606401610186565b604051339082156108fc029083906000818181858888f19350505050158015610af2573d6000803e3d6000fd5b600080516020611221833981519152610bb481610d52565b5050565b6000610bc381610d52565b50600255565b6000918252602082815260408084206001600160a01b0393909316845291905290205460ff1690565b6000610bfd81610d52565b50600480546001600160a01b0319166001600160a01b0392909216919091179055565b600082815260208190526040902060010154610c3b81610d52565b6106de8383610df1565b600080516020611221833981519152610c5d81610d52565b60405163095ea7b360e01b81526001600160a01b0384811660048301526024820184905285169063095ea7b3906044016020604051808303816000875af1158015610cac573d6000803e3d6000fd5b505050506040513d601f19601f82011682018060405250810190610cd09190611086565b50826001600160a01b0316846001600160a01b03167f80da462ebfbe41cfc9bc015e7a9a3c7a2a73dbccede72d8ceb583606c27f8f9084604051610d1691815260200190565b60405180910390a350505050565b6000610d2f81610d52565b50600380546001600160a01b0319166001600160a01b0392909216919091179055565b610d5c8133610e5c565b50565b6000610d6b8383610bc9565b610de9576000838152602081815260408083206001600160a01b03861684529091529020805460ff19166001179055610da13390565b6001600160a01b0316826001600160a01b0316847f2f8788117e7eff1d82e926ec794901d17c78024a50270940304540a733656f0d60405160405180910390a4506001610585565b506000610585565b6000610dfd8383610bc9565b15610de9576000838152602081815260408083206001600160a01b0386168085529252808320805460ff1916905551339286917ff6391f5c32d9c69d2a47ea670b442974b53935d1edc7fd64eb21e047a839171b9190a4506001610585565b610e668282610bc9565b610bb45760405163e2517d3f60e01b81526001600160a01b038216600482015260248101839052604401610186565b634e487b7160e01b600052601160045260246000fd5b808202811582820484141761058557610585610e95565b600082610edf57634e487b7160e01b600052601260045260246000fd5b500490565b600060ff821660ff8103610efa57610efa610e95565b60010192915050565b600060208284031215610f1557600080fd5b81356001600160e01b031981168114610f2d57600080fd5b9392505050565b6001600160a01b0381168114610d5c57600080fd5b60008060408385031215610f5c57600080fd5b8235610f6781610f34565b946020939093013593505050565b60008060008060808587031215610f8b57600080fd5b8435610f9681610f34565b93506020850135610fa681610f34565b92506040850135610fb681610f34565b9396929550929360600135925050565b600060208284031215610fd857600080fd5b5035919050565b60008060408385031215610ff257600080fd5b82359150602083013561100481610f34565b809150509250929050565b60006020828403121561102157600080fd5b8135610f2d81610f34565b60008060006060848603121561104157600080fd5b833561104c81610f34565b9250602084013561105c81610f34565b929592945050506040919091013590565b60006020828403121561107f57600080fd5b5051919050565b60006020828403121561109857600080fd5b81518015158114610f2d57600080fd5b600060ff8216806110bb576110bb610e95565b6000190192915050565b634e487b7160e01b600052604160045260246000fd5b634e487b7160e01b600052603260045260246000fd5b600060a082018783526020878185015260a0604085015281875180845260c086019150828901935060005b818110156111415784516001600160a01b03168352938301939183019160010161111c565b50506001600160a01b03969096166060850152505050608001529392505050565b6000602080838503121561117557600080fd5b825167ffffffffffffffff8082111561118d57600080fd5b818501915085601f8301126111a157600080fd5b8151818111156111b3576111b36110c5565b8060051b604051601f19603f830116810181811085821117156111d8576111d86110c5565b6040529182528482019250838101850191888311156111f657600080fd5b938501935b82851015611214578451845293850193928501926111fb565b9897505050505050505056fea8a7bc421f721cb936ea99efdad79237e6ee0b871a2a08cf648691f9584cdc77a26469706673582212201c03cbe8d8d238283d0973ff13931c9cbfaee0c75e9194155de6c20a72d9d4cb64736f6c63430008140033",
  "devdoc": {
    "errors": {
      "AccessControlBadConfirmation()": [
        {
          "details": "The caller of a function is not the expected one. NOTE: Don't confuse with {AccessControlUnauthorizedAccount}."
        }
      ],
      "AccessControlUnauthorizedAccount(address,bytes32)": [
        {
          "details": "The `account` is missing a role."
        }
      ]
    },
    "events": {
      "RoleAdminChanged(bytes32,bytes32,bytes32)": {
        "details": "Emitted when `newAdminRole` is set as ``role``'s admin role, replacing `previousAdminRole` `DEFAULT_ADMIN_ROLE` is the starting admin for all roles, despite {RoleAdminChanged} not being emitted signaling this."
      },
      "RoleGranted(bytes32,address,address)": {
        "details": "Emitted when `account` is granted `role`. `sender` is the account that originated the contract call, an admin role bearer except when using {AccessControl-_setupRole}."
      },
      "RoleRevoked(bytes32,address,address)": {
        "details": "Emitted when `account` is revoked `role`. `sender` is the account that originated the contract call:   - if using `revokeRole`, it is the admin role bearer   - if using `renounceRole`, it is the role bearer (i.e. `account`)"
      }
    },
    "kind": "dev",
    "methods": {
      "_swapTokens(address,address,address,uint256)": {
        "details": "This function checks the balance of tokenA, approves the Uniswap router to spend it,     and executes the swap for tokenB.",
        "params": {
          "percent": "The amount of tokenA to swap.",
          "tokenA": "The address of the token being swapped from.",
          "tokenB": "The address of the token being swapped to."
        }
      },
      "getRoleAdmin(bytes32)": {
        "details": "Returns the admin role that controls `role`. See {grantRole} and {revokeRole}. To change a role's admin, use {_setRoleAdmin}."
      },
      "grantRole(bytes32,address)": {
        "details": "Grants `role` to `account`. If `account` had not been already granted `role`, emits a {RoleGranted} event. Requirements: - the caller must have ``role``'s admin role. May emit a {RoleGranted} event."
      },
      "hasRole(bytes32,address)": {
        "details": "Returns `true` if `account` has been granted `role`."
      },
      "renounceRole(bytes32,address)": {
        "details": "Revokes `role` from the calling account. Roles are often managed via {grantRole} and {revokeRole}: this function's purpose is to provide a mechanism for accounts to lose their privileges if they are compromised (such as when a trusted device is misplaced). If the calling account had been revoked `role`, emits a {RoleRevoked} event. Requirements: - the caller must be `callerConfirmation`. May emit a {RoleRevoked} event."
      },
      "revokeRole(bytes32,address)": {
        "details": "Revokes `role` from `account`. If `account` had been granted `role`, emits a {RoleRevoked} event. Requirements: - the caller must have ``role``'s admin role. May emit a {RoleRevoked} event."
      },
      "setPrice(uint256)": {
        "params": {
          "_price": "The new price to set."
        }
      },
      "setUniswapRouter(address)": {
        "params": {
          "_uniswapRouter": "The new Uniswap router address."
        }
      },
      "supportsInterface(bytes4)": {
        "details": "See {IERC165-supportsInterface}."
      },
      "withdrawTokens(address,uint256)": {
        "params": {
          "amount": "The amount of tokens to withdraw",
          "token": "The address of the token to withdraw (USDT or USDC)"
        }
      }
    },
    "version": 1
  },
  "userdoc": {
    "kind": "user",
    "methods": {
      "_swapTokens(address,address,address,uint256)": {
        "notice": "Performs a token swap between two ERC20 tokens."
      },
      "setPrice(uint256)": {
        "notice": "Sets the price."
      },
      "setUniswapRouter(address)": {
        "notice": "Sets the Uniswap router address."
      },
      "withdrawTokens(address,uint256)": {
        "notice": "Withdraws USDT or USDC from the contract"
      }
    },
    "version": 1
  },
  "storageLayout": {
    "storage": [
      {
        "astId": 26,
        "contract": "contracts/AIC2.sol:AIC2",
        "label": "_roles",
        "offset": 0,
        "slot": "0",
        "type": "t_mapping(t_bytes32,t_struct(RoleData)21_storage)"
      },
      {
        "astId": 1079,
        "contract": "contracts/AIC2.sol:AIC2",
        "label": "whitelist",
        "offset": 0,
        "slot": "1",
        "type": "t_mapping(t_address,t_uint8)"
      },
      {
        "astId": 1097,
        "contract": "contracts/AIC2.sol:AIC2",
        "label": "price",
        "offset": 0,
        "slot": "2",
        "type": "t_uint256"
      },
      {
        "astId": 1099,
        "contract": "contracts/AIC2.sol:AIC2",
        "label": "server",
        "offset": 0,
        "slot": "3",
        "type": "t_address"
      },
      {
        "astId": 1105,
        "contract": "contracts/AIC2.sol:AIC2",
        "label": "uniswapRouter",
        "offset": 0,
        "slot": "4",
        "type": "t_contract(IUniswapV2Router02)1066"
      }
    ],
    "types": {
      "t_address": {
        "encoding": "inplace",
        "label": "address",
        "numberOfBytes": "20"
      },
      "t_bool": {
        "encoding": "inplace",
        "label": "bool",
        "numberOfBytes": "1"
      },
      "t_bytes32": {
        "encoding": "inplace",
        "label": "bytes32",
        "numberOfBytes": "32"
      },
      "t_contract(IUniswapV2Router02)1066": {
        "encoding": "inplace",
        "label": "contract IUniswapV2Router02",
        "numberOfBytes": "20"
      },
      "t_mapping(t_address,t_bool)": {
        "encoding": "mapping",
        "key": "t_address",
        "label": "mapping(address => bool)",
        "numberOfBytes": "32",
        "value": "t_bool"
      },
      "t_mapping(t_address,t_uint8)": {
        "encoding": "mapping",
        "key": "t_address",
        "label": "mapping(address => uint8)",
        "numberOfBytes": "32",
        "value": "t_uint8"
      },
      "t_mapping(t_bytes32,t_struct(RoleData)21_storage)": {
        "encoding": "mapping",
        "key": "t_bytes32",
        "label": "mapping(bytes32 => struct AccessControl.RoleData)",
        "numberOfBytes": "32",
        "value": "t_struct(RoleData)21_storage"
      },
      "t_struct(RoleData)21_storage": {
        "encoding": "inplace",
        "label": "struct AccessControl.RoleData",
        "members": [
          {
            "astId": 18,
            "contract": "contracts/AIC2.sol:AIC2",
            "label": "hasRole",
            "offset": 0,
            "slot": "0",
            "type": "t_mapping(t_address,t_bool)"
          },
          {
            "astId": 20,
            "contract": "contracts/AIC2.sol:AIC2",
            "label": "adminRole",
            "offset": 0,
            "slot": "1",
            "type": "t_bytes32"
          }
        ],
        "numberOfBytes": "64"
      },
      "t_uint256": {
        "encoding": "inplace",
        "label": "uint256",
        "numberOfBytes": "32"
      },
      "t_uint8": {
        "encoding": "inplace",
        "label": "uint8",
        "numberOfBytes": "1"
      }
    }
  }
}